{
  "_format": "hh-sol-artifact-1",
  "contractName": "Leverager",
  "sourceName": "contracts/Leverager.sol",
  "abi": [
    {
      "inputs": [
        {
          "internalType": "address",
          "name": "target",
          "type": "address"
        }
      ],
      "name": "AddressEmptyCode",
      "type": "error"
    },
    {
      "inputs": [
        {
          "internalType": "address",
          "name": "account",
          "type": "address"
        }
      ],
      "name": "AddressInsufficientBalance",
      "type": "error"
    },
    {
      "inputs": [],
      "name": "AddressZero",
      "type": "error"
    },
    {
      "inputs": [],
      "name": "ETHTransferFailed",
      "type": "error"
    },
    {
      "inputs": [],
      "name": "EthTransferFailed",
      "type": "error"
    },
    {
      "inputs": [],
      "name": "FailedInnerCall",
      "type": "error"
    },
    {
      "inputs": [],
      "name": "FallbackNotAllowed",
      "type": "error"
    },
    {
      "inputs": [],
      "name": "InsufficientPermission",
      "type": "error"
    },
    {
      "inputs": [],
      "name": "InvalidInitialization",
      "type": "error"
    },
    {
      "inputs": [],
      "name": "InvalidLoopCount",
      "type": "error"
    },
    {
      "inputs": [],
      "name": "InvalidRatio",
      "type": "error"
    },
    {
      "inputs": [],
      "name": "NotInitializing",
      "type": "error"
    },
    {
      "inputs": [
        {
          "internalType": "address",
          "name": "owner",
          "type": "address"
        }
      ],
      "name": "OwnableInvalidOwner",
      "type": "error"
    },
    {
      "inputs": [
        {
          "internalType": "address",
          "name": "account",
          "type": "address"
        }
      ],
      "name": "OwnableUnauthorizedAccount",
      "type": "error"
    },
    {
      "inputs": [],
      "name": "ReceiveNotAllowed",
      "type": "error"
    },
    {
      "inputs": [
        {
          "internalType": "address",
          "name": "token",
          "type": "address"
        }
      ],
      "name": "SafeERC20FailedOperation",
      "type": "error"
    },
    {
      "anonymous": false,
      "inputs": [
        {
          "indexed": true,
          "internalType": "uint256",
          "name": "_feePercent",
          "type": "uint256"
        }
      ],
      "name": "FeePercentUpdated",
      "type": "event"
    },
    {
      "anonymous": false,
      "inputs": [
        {
          "indexed": false,
          "internalType": "uint64",
          "name": "version",
          "type": "uint64"
        }
      ],
      "name": "Initialized",
      "type": "event"
    },
    {
      "anonymous": false,
      "inputs": [
        {
          "indexed": true,
          "internalType": "address",
          "name": "previousOwner",
          "type": "address"
        },
        {
          "indexed": true,
          "internalType": "address",
          "name": "newOwner",
          "type": "address"
        }
      ],
      "name": "OwnershipTransferred",
      "type": "event"
    },
    {
      "anonymous": false,
      "inputs": [
        {
          "indexed": true,
          "internalType": "address",
          "name": "_treasury",
          "type": "address"
        }
      ],
      "name": "TreasuryUpdated",
      "type": "event"
    },
    {
      "stateMutability": "payable",
      "type": "fallback"
    },
    {
      "inputs": [],
      "name": "MAX_REASONABLE_FEE",
      "outputs": [
        {
          "internalType": "uint256",
          "name": "",
          "type": "uint256"
        }
      ],
      "stateMutability": "view",
      "type": "function"
    },
    {
      "inputs": [],
      "name": "RATIO_DIVISOR",
      "outputs": [
        {
          "internalType": "uint256",
          "name": "",
          "type": "uint256"
        }
      ],
      "stateMutability": "view",
      "type": "function"
    },
    {
      "inputs": [],
      "name": "TWO_POW_16",
      "outputs": [
        {
          "internalType": "uint256",
          "name": "",
          "type": "uint256"
        }
      ],
      "stateMutability": "view",
      "type": "function"
    },
    {
      "inputs": [],
      "name": "feePercent",
      "outputs": [
        {
          "internalType": "uint256",
          "name": "",
          "type": "uint256"
        }
      ],
      "stateMutability": "view",
      "type": "function"
    },
    {
      "inputs": [
        {
          "internalType": "address",
          "name": "asset",
          "type": "address"
        }
      ],
      "name": "getConfiguration",
      "outputs": [
        {
          "components": [
            {
              "internalType": "uint256",
              "name": "data",
              "type": "uint256"
            }
          ],
          "internalType": "struct DataTypes.ReserveConfigurationMap",
          "name": "",
          "type": "tuple"
        }
      ],
      "stateMutability": "view",
      "type": "function"
    },
    {
      "inputs": [
        {
          "internalType": "uint256",
          "name": "amount",
          "type": "uint256"
        },
        {
          "internalType": "uint256",
          "name": "borrowRatio",
          "type": "uint256"
        },
        {
          "internalType": "uint256",
          "name": "loopCount",
          "type": "uint256"
        },
        {
          "internalType": "bool",
          "name": "isBorrow",
          "type": "bool"
        }
      ],
      "name": "getSupplyBorrowAmount",
      "outputs": [
        {
          "internalType": "uint256",
          "name": "aTokenAmount",
          "type": "uint256"
        },
        {
          "internalType": "uint256",
          "name": "debtTokenAmount",
          "type": "uint256"
        }
      ],
      "stateMutability": "view",
      "type": "function"
    },
    {
      "inputs": [
        {
          "internalType": "address",
          "name": "asset",
          "type": "address"
        }
      ],
      "name": "getVDebtToken",
      "outputs": [
        {
          "internalType": "address",
          "name": "",
          "type": "address"
        }
      ],
      "stateMutability": "view",
      "type": "function"
    },
    {
      "inputs": [
        {
          "internalType": "contract IPool",
          "name": "_pool",
          "type": "address"
        },
        {
          "internalType": "contract IWETH",
          "name": "_weth",
          "type": "address"
        },
        {
          "internalType": "uint256",
          "name": "_feePercent",
          "type": "uint256"
        },
        {
          "internalType": "address",
          "name": "_treasury",
          "type": "address"
        }
      ],
      "name": "initialize",
      "outputs": [],
      "stateMutability": "nonpayable",
      "type": "function"
    },
    {
      "inputs": [
        {
          "internalType": "address",
          "name": "asset",
          "type": "address"
        },
        {
          "internalType": "uint256",
          "name": "amount",
          "type": "uint256"
        },
        {
          "internalType": "uint256",
          "name": "interestRateMode",
          "type": "uint256"
        },
        {
          "internalType": "uint256",
          "name": "borrowRatio",
          "type": "uint256"
        },
        {
          "internalType": "uint256",
          "name": "loopCount",
          "type": "uint256"
        },
        {
          "internalType": "bool",
          "name": "isBorrow",
          "type": "bool"
        }
      ],
      "name": "loop",
      "outputs": [],
      "stateMutability": "nonpayable",
      "type": "function"
    },
    {
      "inputs": [
        {
          "internalType": "uint256",
          "name": "interestRateMode",
          "type": "uint256"
        },
        {
          "internalType": "uint256",
          "name": "borrowRatio",
          "type": "uint256"
        },
        {
          "internalType": "uint256",
          "name": "loopCount",
          "type": "uint256"
        }
      ],
      "name": "loopETH",
      "outputs": [],
      "stateMutability": "payable",
      "type": "function"
    },
    {
      "inputs": [
        {
          "internalType": "uint256",
          "name": "interestRateMode",
          "type": "uint256"
        },
        {
          "internalType": "uint256",
          "name": "amount",
          "type": "uint256"
        },
        {
          "internalType": "uint256",
          "name": "borrowRatio",
          "type": "uint256"
        },
        {
          "internalType": "uint256",
          "name": "loopCount",
          "type": "uint256"
        }
      ],
      "name": "loopETHFromBorrow",
      "outputs": [],
      "stateMutability": "nonpayable",
      "type": "function"
    },
    {
      "inputs": [
        {
          "internalType": "address",
          "name": "asset",
          "type": "address"
        }
      ],
      "name": "ltv",
      "outputs": [
        {
          "internalType": "uint256",
          "name": "",
          "type": "uint256"
        }
      ],
      "stateMutability": "view",
      "type": "function"
    },
    {
      "inputs": [],
      "name": "owner",
      "outputs": [
        {
          "internalType": "address",
          "name": "",
          "type": "address"
        }
      ],
      "stateMutability": "view",
      "type": "function"
    },
    {
      "inputs": [],
      "name": "pool",
      "outputs": [
        {
          "internalType": "contract IPool",
          "name": "",
          "type": "address"
        }
      ],
      "stateMutability": "view",
      "type": "function"
    },
    {
      "inputs": [],
      "name": "renounceOwnership",
      "outputs": [],
      "stateMutability": "nonpayable",
      "type": "function"
    },
    {
      "inputs": [
        {
          "internalType": "uint256",
          "name": "_feePercent",
          "type": "uint256"
        }
      ],
      "name": "setFeePercent",
      "outputs": [],
      "stateMutability": "nonpayable",
      "type": "function"
    },
    {
      "inputs": [
        {
          "internalType": "address",
          "name": "_treasury",
          "type": "address"
        }
      ],
      "name": "setTreasury",
      "outputs": [],
      "stateMutability": "nonpayable",
      "type": "function"
    },
    {
      "inputs": [
        {
          "internalType": "address",
          "name": "newOwner",
          "type": "address"
        }
      ],
      "name": "transferOwnership",
      "outputs": [],
      "stateMutability": "nonpayable",
      "type": "function"
    },
    {
      "inputs": [],
      "name": "treasury",
      "outputs": [
        {
          "internalType": "address",
          "name": "",
          "type": "address"
        }
      ],
      "stateMutability": "view",
      "type": "function"
    },
    {
      "inputs": [],
      "name": "weth",
      "outputs": [
        {
          "internalType": "contract IWETH",
          "name": "",
          "type": "address"
        }
      ],
      "stateMutability": "view",
      "type": "function"
    },
    {
      "stateMutability": "payable",
      "type": "receive"
    }
  ],
  "bytecode": "0x608060405234801561000f575f80fd5b506131f68061001d5f395ff3fe608060405260043610610122575f3560e01c80637c6114921161009f578063a8d5a45211610063578063a8d5a45214610474578063be20309414610490578063c44b11f7146104b8578063f0f44260146104f4578063f2fde38b1461051c576101af565b80637c611492146103935780637ce3489b146103d05780637fd6f15c146103f8578063861d18b9146104225780638da5cb5b1461044a576101af565b806361d027b3116100e657806361d027b3146102b1578063667f3745146102db5780636a7e9f3314610317578063715018a6146103415780637473eea614610357576101af565b806316f0115b146101e1578063171b3e431461020b578063269510a2146102335780633fc8cef31461025d5780634c215f2114610287576101af565b366101af5760015f9054906101000a900473ffffffffffffffffffffffffffffffffffffffff1673ffffffffffffffffffffffffffffffffffffffff163373ffffffffffffffffffffffffffffffffffffffff16146101ad576040517fcb263c3f00000000000000000000000000000000000000000000000000000000815260040160405180910390fd5b005b6040517fdeab4c3000000000000000000000000000000000000000000000000000000000815260040160405180910390fd5b3480156101ec575f80fd5b506101f5610544565b60405161020291906125a1565b60405180910390f35b348015610216575f80fd5b50610231600480360381019061022c919061266a565b610567565b005b34801561023e575f80fd5b5061024761092b565b6040516102549190612702565b60405180910390f35b348015610268575f80fd5b50610271610930565b60405161027e919061273b565b60405180910390f35b348015610292575f80fd5b5061029b610955565b6040516102a89190612702565b60405180910390f35b3480156102bc575f80fd5b506102c561095c565b6040516102d29190612763565b60405180910390f35b3480156102e6575f80fd5b5061030160048036038101906102fc919061277c565b610981565b60405161030e9190612763565b60405180910390f35b348015610322575f80fd5b5061032b610a2b565b6040516103389190612702565b60405180910390f35b34801561034c575f80fd5b50610355610a31565b005b348015610362575f80fd5b5061037d6004803603810190610378919061277c565b610a44565b60405161038a9190612702565b60405180910390f35b34801561039e575f80fd5b506103b960048036038101906103b491906127a7565b610a6b565b6040516103c792919061280b565b60405180910390f35b3480156103db575f80fd5b506103f660048036038101906103f19190612832565b610be9565b005b348015610403575f80fd5b5061040c610c63565b6040516104199190612702565b60405180910390f35b34801561042d575f80fd5b506104486004803603810190610443919061285d565b610c69565b005b348015610455575f80fd5b5061045e610f93565b60405161046b9190612763565b60405180910390f35b61048e600480360381019061048991906128c1565b610fc8565b005b34801561049b575f80fd5b506104b660048036038101906104b19190612987565b61147c565b005b3480156104c3575f80fd5b506104de60048036038101906104d9919061277c565b611837565b6040516104eb9190612a14565b60405180910390f35b3480156104ff575f80fd5b5061051a6004803603810190610515919061277c565b6118dd565b005b348015610527575f80fd5b50610542600480360381019061053d919061277c565b6119d0565b005b5f8054906101000a900473ffffffffffffffffffffffffffffffffffffffff1681565b5f8311801561057857506127108311155b6105ae576040517f648564d300000000000000000000000000000000000000000000000000000000815260040160405180910390fd5b5f82036105e7576040517f2ffe3c2f00000000000000000000000000000000000000000000000000000000815260040160405180910390fd5b5f808261069c5761061b3330898b73ffffffffffffffffffffffffffffffffffffffff16611a54909392919063ffffffff16565b6127106002548861062c9190612a5a565b6106369190612ac8565b90505f81111561069b5761068c60035f9054906101000a900473ffffffffffffffffffffffffffffffffffffffff16828a73ffffffffffffffffffffffffffffffffffffffff16611ad69092919063ffffffff16565b80876106989190612af8565b96505b5b6106a588611b55565b8261073a575f8054906101000a900473ffffffffffffffffffffffffffffffffffffffff1673ffffffffffffffffffffffffffffffffffffffff1663617ba037898933866040518563ffffffff1660e01b81526004016107089493929190612b47565b5f604051808303815f87803b15801561071f575f80fd5b505af1158015610731573d5f803e3d5ffd5b50505050610756565b84612710886107499190612a5a565b6107539190612ac8565b96505b5f5b8481101561092057612710868961076f9190612a5a565b6107799190612ac8565b97505f8054906101000a900473ffffffffffffffffffffffffffffffffffffffff1673ffffffffffffffffffffffffffffffffffffffff1663a415bcad8a8a8a87336040518663ffffffff1660e01b81526004016107db959493929190612b8a565b5f604051808303815f87803b1580156107f2575f80fd5b505af1158015610804573d5f803e3d5ffd5b50505050612710600254896108199190612a5a565b6108239190612ac8565b91505f8211156108885761087960035f9054906101000a900473ffffffffffffffffffffffffffffffffffffffff16838b73ffffffffffffffffffffffffffffffffffffffff16611ad69092919063ffffffff16565b81886108859190612af8565b97505b5f8054906101000a900473ffffffffffffffffffffffffffffffffffffffff1673ffffffffffffffffffffffffffffffffffffffff1663617ba0378a8a33876040518563ffffffff1660e01b81526004016108e69493929190612b47565b5f604051808303815f87803b1580156108fd575f80fd5b505af115801561090f573d5f803e3d5ffd5b505050508080600101915050610758565b505050505050505050565b606481565b60015f9054906101000a900473ffffffffffffffffffffffffffffffffffffffff1681565b6201000081565b60035f9054906101000a900473ffffffffffffffffffffffffffffffffffffffff1681565b5f805f8054906101000a900473ffffffffffffffffffffffffffffffffffffffff1673ffffffffffffffffffffffffffffffffffffffff166335ea6a75846040518263ffffffff1660e01b81526004016109db9190612763565b6101e060405180830381865afa1580156109f7573d5f803e3d5ffd5b505050506040513d601f19601f82011682018060405250810190610a1b9190612ed2565b9050806101400151915050919050565b61271081565b610a39611d70565b610a425f611df7565b565b5f80610a4f83611837565b905062010000815f0151610a639190612efe565b915050919050565b5f805f85118015610a7e57506127108511155b610ab4576040517f648564d300000000000000000000000000000000000000000000000000000000815260040160405180910390fd5b5f8403610aed576040517f2ffe3c2f00000000000000000000000000000000000000000000000000000000815260040160405180910390fd5b5f83610b285761271060025488610b049190612a5a565b610b0e9190612ac8565b90505f811115610b27578087610b249190612af8565b96505b5b83610b40578683610b399190612f2e565b9250610b5c565b8561271088610b4f9190612a5a565b610b599190612ac8565b96505b5f5b85811015610bde576127108789610b759190612a5a565b610b7f9190612ac8565b97508783610b8d9190612f2e565b925061271060025489610ba09190612a5a565b610baa9190612ac8565b91505f821115610bc3578188610bc09190612af8565b97505b8784610bcf9190612f2e565b93508080600101915050610b5e565b505094509492505050565b610bf1611d70565b6064811115610c2c576040517f648564d300000000000000000000000000000000000000000000000000000000815260040160405180910390fd5b80600281905550807f64d1887078a96d281ed60dd69ba75bfb6b5cd2cb4c2d2538b2eb7816a4c646ea60405160405180910390a250565b60025481565b5f82118015610c7a57506127108211155b610cb0576040517f648564d300000000000000000000000000000000000000000000000000000000815260040160405180910390fd5b5f8103610ce9576040517f2ffe3c2f00000000000000000000000000000000000000000000000000000000815260040160405180910390fd5b5f610d1460015f9054906101000a900473ffffffffffffffffffffffffffffffffffffffff16611b55565b5f805f90505b83811015610f8a575f8054906101000a900473ffffffffffffffffffffffffffffffffffffffff1673ffffffffffffffffffffffffffffffffffffffff1663a415bcad60015f9054906101000a900473ffffffffffffffffffffffffffffffffffffffff16888a87336040518663ffffffff1660e01b8152600401610da3959493929190612b8a565b5f604051808303815f87803b158015610dba575f80fd5b505af1158015610dcc573d5f803e3d5ffd5b5050505061271060025487610de19190612a5a565b610deb9190612ac8565b91505f821115610eb65760015f9054906101000a900473ffffffffffffffffffffffffffffffffffffffff1673ffffffffffffffffffffffffffffffffffffffff16632e1a7d4d836040518263ffffffff1660e01b8152600401610e4f9190612702565b5f604051808303815f87803b158015610e66575f80fd5b505af1158015610e78573d5f803e3d5ffd5b50505050610ea760035f9054906101000a900473ffffffffffffffffffffffffffffffffffffffff1683611ec8565b8186610eb39190612af8565b95505b5f8054906101000a900473ffffffffffffffffffffffffffffffffffffffff1673ffffffffffffffffffffffffffffffffffffffff1663617ba03760015f9054906101000a900473ffffffffffffffffffffffffffffffffffffffff168833876040518563ffffffff1660e01b8152600401610f359493929190612b47565b5f604051808303815f87803b158015610f4c575f80fd5b505af1158015610f5e573d5f803e3d5ffd5b505050506127108587610f719190612a5a565b610f7b9190612ac8565b95508080600101915050610d1a565b50505050505050565b5f80610f9d611fba565b9050805f015f9054906101000a900473ffffffffffffffffffffffffffffffffffffffff1691505090565b5f82118015610fd957506127108211155b61100f576040517f648564d300000000000000000000000000000000000000000000000000000000815260040160405180910390fd5b5f8103611048576040517f2ffe3c2f00000000000000000000000000000000000000000000000000000000815260040160405180910390fd5b5f8034905061107760015f9054906101000a900473ffffffffffffffffffffffffffffffffffffffff16611b55565b5f612710600254836110899190612a5a565b6110939190612ac8565b90505f8111156110d7576110c860035f9054906101000a900473ffffffffffffffffffffffffffffffffffffffff1682611ec8565b80826110d49190612af8565b91505b60015f9054906101000a900473ffffffffffffffffffffffffffffffffffffffff1673ffffffffffffffffffffffffffffffffffffffff1663d0e30db0836040518263ffffffff1660e01b81526004015f604051808303818588803b15801561113e575f80fd5b505af1158015611150573d5f803e3d5ffd5b50505050505f8054906101000a900473ffffffffffffffffffffffffffffffffffffffff1673ffffffffffffffffffffffffffffffffffffffff1663617ba03760015f9054906101000a900473ffffffffffffffffffffffffffffffffffffffff168433876040518563ffffffff1660e01b81526004016111d49493929190612b47565b5f604051808303815f87803b1580156111eb575f80fd5b505af11580156111fd573d5f803e3d5ffd5b505050505f5b8481101561147357612710868461121a9190612a5a565b6112249190612ac8565b92505f8054906101000a900473ffffffffffffffffffffffffffffffffffffffff1673ffffffffffffffffffffffffffffffffffffffff1663a415bcad60015f9054906101000a900473ffffffffffffffffffffffffffffffffffffffff16858a88336040518663ffffffff1660e01b81526004016112a7959493929190612b8a565b5f604051808303815f87803b1580156112be575f80fd5b505af11580156112d0573d5f803e3d5ffd5b50505050612710600254846112e59190612a5a565b6112ef9190612ac8565b91505f8211156113ba5760015f9054906101000a900473ffffffffffffffffffffffffffffffffffffffff1673ffffffffffffffffffffffffffffffffffffffff16632e1a7d4d836040518263ffffffff1660e01b81526004016113539190612702565b5f604051808303815f87803b15801561136a575f80fd5b505af115801561137c573d5f803e3d5ffd5b505050506113ab60035f9054906101000a900473ffffffffffffffffffffffffffffffffffffffff1683611ec8565b81836113b79190612af8565b92505b5f8054906101000a900473ffffffffffffffffffffffffffffffffffffffff1673ffffffffffffffffffffffffffffffffffffffff1663617ba03760015f9054906101000a900473ffffffffffffffffffffffffffffffffffffffff168533886040518563ffffffff1660e01b81526004016114399493929190612b47565b5f604051808303815f87803b158015611450575f80fd5b505af1158015611462573d5f803e3d5ffd5b505050508080600101915050611203565b50505050505050565b5f611485611fe1565b90505f815f0160089054906101000a900460ff161590505f825f015f9054906101000a900467ffffffffffffffff1690505f808267ffffffffffffffff161480156114cd5750825b90505f60018367ffffffffffffffff1614801561150057505f3073ffffffffffffffffffffffffffffffffffffffff163b145b90508115801561150e575080155b15611545576040517ff92ee8a900000000000000000000000000000000000000000000000000000000815260040160405180910390fd5b6001855f015f6101000a81548167ffffffffffffffff021916908367ffffffffffffffff1602179055508315611592576001855f0160086101000a81548160ff0219169083151502179055505b5f73ffffffffffffffffffffffffffffffffffffffff168973ffffffffffffffffffffffffffffffffffffffff16036115f7576040517f9fabe1c100000000000000000000000000000000000000000000000000000000815260040160405180910390fd5b5f73ffffffffffffffffffffffffffffffffffffffff168873ffffffffffffffffffffffffffffffffffffffff160361165c576040517f9fabe1c100000000000000000000000000000000000000000000000000000000815260040160405180910390fd5b5f73ffffffffffffffffffffffffffffffffffffffff168673ffffffffffffffffffffffffffffffffffffffff16036116c1576040517f9fabe1c100000000000000000000000000000000000000000000000000000000815260040160405180910390fd5b60648711156116fc576040517f648564d300000000000000000000000000000000000000000000000000000000815260040160405180910390fd5b61170c611707612008565b61200f565b885f806101000a81548173ffffffffffffffffffffffffffffffffffffffff021916908373ffffffffffffffffffffffffffffffffffffffff1602179055508760015f6101000a81548173ffffffffffffffffffffffffffffffffffffffff021916908373ffffffffffffffffffffffffffffffffffffffff160217905550866002819055508560035f6101000a81548173ffffffffffffffffffffffffffffffffffffffff021916908373ffffffffffffffffffffffffffffffffffffffff160217905550831561182c575f855f0160086101000a81548160ff0219169083151502179055507fc7f505b2f371ae2175ee4913f4499e1f2633a7b5936321eed1cdaeb6115181d260016040516118239190612fad565b60405180910390a15b505050505050505050565b61183f612515565b5f8054906101000a900473ffffffffffffffffffffffffffffffffffffffff1673ffffffffffffffffffffffffffffffffffffffff1663c44b11f7836040518263ffffffff1660e01b81526004016118979190612763565b602060405180830381865afa1580156118b2573d5f803e3d5ffd5b505050506040513d601f19601f820116820180604052508101906118d69190612fc6565b9050919050565b6118e5611d70565b5f73ffffffffffffffffffffffffffffffffffffffff168173ffffffffffffffffffffffffffffffffffffffff160361194a576040517f9fabe1c100000000000000000000000000000000000000000000000000000000815260040160405180910390fd5b8060035f6101000a81548173ffffffffffffffffffffffffffffffffffffffff021916908373ffffffffffffffffffffffffffffffffffffffff1602179055508073ffffffffffffffffffffffffffffffffffffffff167f7dae230f18360d76a040c81f050aa14eb9d6dc7901b20fc5d855e2a20fe814d160405160405180910390a250565b6119d8611d70565b5f73ffffffffffffffffffffffffffffffffffffffff168173ffffffffffffffffffffffffffffffffffffffff1603611a48575f6040517f1e4fbdf7000000000000000000000000000000000000000000000000000000008152600401611a3f9190612763565b60405180910390fd5b611a5181611df7565b50565b611ad0848573ffffffffffffffffffffffffffffffffffffffff166323b872dd868686604051602401611a8993929190612ff1565b604051602081830303815290604052915060e01b6020820180517bffffffffffffffffffffffffffffffffffffffffffffffffffffffff8381831617835250505050612023565b50505050565b611b50838473ffffffffffffffffffffffffffffffffffffffff1663a9059cbb8585604051602401611b09929190613026565b604051602081830303815290604052915060e01b6020820180517bffffffffffffffffffffffffffffffffffffffffffffffffffffffff8381831617835250505050612023565b505050565b5f8173ffffffffffffffffffffffffffffffffffffffff1663dd62ed3e305f8054906101000a900473ffffffffffffffffffffffffffffffffffffffff166040518363ffffffff1660e01b8152600401611bb092919061304d565b602060405180830381865afa158015611bcb573d5f803e3d5ffd5b505050506040513d601f19601f82011682018060405250810190611bef9190613074565b03611c5f57611c5e5f8054906101000a900473ffffffffffffffffffffffffffffffffffffffff167fffffffffffffffffffffffffffffffffffffffffffffffffffffffffffffffff8373ffffffffffffffffffffffffffffffffffffffff166120b89092919063ffffffff16565b5b5f8173ffffffffffffffffffffffffffffffffffffffff1663dd62ed3e3060035f9054906101000a900473ffffffffffffffffffffffffffffffffffffffff166040518363ffffffff1660e01b8152600401611cbc92919061304d565b602060405180830381865afa158015611cd7573d5f803e3d5ffd5b505050506040513d601f19601f82011682018060405250810190611cfb9190613074565b03611d6d57611d6c60035f9054906101000a900473ffffffffffffffffffffffffffffffffffffffff167fffffffffffffffffffffffffffffffffffffffffffffffffffffffffffffffff8373ffffffffffffffffffffffffffffffffffffffff166120b89092919063ffffffff16565b5b50565b611d78612008565b73ffffffffffffffffffffffffffffffffffffffff16611d96610f93565b73ffffffffffffffffffffffffffffffffffffffff1614611df557611db9612008565b6040517f118cdaa7000000000000000000000000000000000000000000000000000000008152600401611dec9190612763565b60405180910390fd5b565b5f611e00611fba565b90505f815f015f9054906101000a900473ffffffffffffffffffffffffffffffffffffffff16905082825f015f6101000a81548173ffffffffffffffffffffffffffffffffffffffff021916908373ffffffffffffffffffffffffffffffffffffffff1602179055508273ffffffffffffffffffffffffffffffffffffffff168173ffffffffffffffffffffffffffffffffffffffff167f8be0079c531659141344cd1fd0a4f28419497f9722a3daafe3b4186f6b6457e060405160405180910390a3505050565b5f8273ffffffffffffffffffffffffffffffffffffffff16825f67ffffffffffffffff811115611efb57611efa612bef565b5b6040519080825280601f01601f191660200182016040528015611f2d5781602001600182028036833780820191505090505b50604051611f3b919061310b565b5f6040518083038185875af1925050503d805f8114611f75576040519150601f19603f3d011682016040523d82523d5f602084013e611f7a565b606091505b5050905080611fb5576040517fb12d13eb00000000000000000000000000000000000000000000000000000000815260040160405180910390fd5b505050565b5f7f9016d09d72d40fdae2fd8ceac6b6234c7706214fd39c1cd1e609a0528c199300905090565b5f7ff0c57e16840df040f15088dc2f81fe391c3923bec73e23a9662efc9c229c6a00905090565b5f33905090565b6120176121c5565b61202081612205565b50565b5f61204d828473ffffffffffffffffffffffffffffffffffffffff1661228990919063ffffffff16565b90505f81511415801561207157508080602001905181019061206f9190613135565b155b156120b357826040517f5274afe70000000000000000000000000000000000000000000000000000000081526004016120aa9190612763565b60405180910390fd5b505050565b5f8373ffffffffffffffffffffffffffffffffffffffff1663095ea7b384846040516024016120e8929190613026565b604051602081830303815290604052915060e01b6020820180517bffffffffffffffffffffffffffffffffffffffffffffffffffffffff83818316178352505050509050612136848261229e565b6121bf576121b4848573ffffffffffffffffffffffffffffffffffffffff1663095ea7b3865f60405160240161216d929190613199565b604051602081830303815290604052915060e01b6020820180517bffffffffffffffffffffffffffffffffffffffffffffffffffffffff8381831617835250505050612023565b6121be8482612023565b5b50505050565b6121cd61235d565b612203576040517fd7e6bcf800000000000000000000000000000000000000000000000000000000815260040160405180910390fd5b565b61220d6121c5565b5f73ffffffffffffffffffffffffffffffffffffffff168173ffffffffffffffffffffffffffffffffffffffff160361227d575f6040517f1e4fbdf70000000000000000000000000000000000000000000000000000000081526004016122749190612763565b60405180910390fd5b61228681611df7565b50565b606061229683835f61237b565b905092915050565b5f805f8473ffffffffffffffffffffffffffffffffffffffff16846040516122c6919061310b565b5f604051808303815f865af19150503d805f81146122ff576040519150601f19603f3d011682016040523d82523d5f602084013e612304565b606091505b509150915081801561233157505f8151148061233057508080602001905181019061232f9190613135565b5b5b801561235357505f8573ffffffffffffffffffffffffffffffffffffffff163b115b9250505092915050565b5f612366611fe1565b5f0160089054906101000a900460ff16905090565b6060814710156123c257306040517fcd7860590000000000000000000000000000000000000000000000000000000081526004016123b99190612763565b60405180910390fd5b5f808573ffffffffffffffffffffffffffffffffffffffff1684866040516123ea919061310b565b5f6040518083038185875af1925050503d805f8114612424576040519150601f19603f3d011682016040523d82523d5f602084013e612429565b606091505b5091509150612439868383612444565b925050509392505050565b60608261245957612454826124d1565b6124c9565b5f825114801561247f57505f8473ffffffffffffffffffffffffffffffffffffffff163b145b156124c157836040517f9996b3150000000000000000000000000000000000000000000000000000000081526004016124b89190612763565b60405180910390fd5b8190506124ca565b5b9392505050565b5f815111156124e35780518082602001fd5b6040517f1425ea4200000000000000000000000000000000000000000000000000000000815260040160405180910390fd5b60405180602001604052805f81525090565b5f73ffffffffffffffffffffffffffffffffffffffff82169050919050565b5f819050919050565b5f61256961256461255f84612527565b612546565b612527565b9050919050565b5f61257a8261254f565b9050919050565b5f61258b82612570565b9050919050565b61259b81612581565b82525050565b5f6020820190506125b45f830184612592565b92915050565b5f604051905090565b5f80fd5b5f6125d182612527565b9050919050565b6125e1816125c7565b81146125eb575f80fd5b50565b5f813590506125fc816125d8565b92915050565b5f819050919050565b61261481612602565b811461261e575f80fd5b50565b5f8135905061262f8161260b565b92915050565b5f8115159050919050565b61264981612635565b8114612653575f80fd5b50565b5f8135905061266481612640565b92915050565b5f805f805f8060c08789031215612684576126836125c3565b5b5f61269189828a016125ee565b96505060206126a289828a01612621565b95505060406126b389828a01612621565b94505060606126c489828a01612621565b93505060806126d589828a01612621565b92505060a06126e689828a01612656565b9150509295509295509295565b6126fc81612602565b82525050565b5f6020820190506127155f8301846126f3565b92915050565b5f61272582612570565b9050919050565b6127358161271b565b82525050565b5f60208201905061274e5f83018461272c565b92915050565b61275d816125c7565b82525050565b5f6020820190506127765f830184612754565b92915050565b5f60208284031215612791576127906125c3565b5b5f61279e848285016125ee565b91505092915050565b5f805f80608085870312156127bf576127be6125c3565b5b5f6127cc87828801612621565b94505060206127dd87828801612621565b93505060406127ee87828801612621565b92505060606127ff87828801612656565b91505092959194509250565b5f60408201905061281e5f8301856126f3565b61282b60208301846126f3565b9392505050565b5f60208284031215612847576128466125c3565b5b5f61285484828501612621565b91505092915050565b5f805f8060808587031215612875576128746125c3565b5b5f61288287828801612621565b945050602061289387828801612621565b93505060406128a487828801612621565b92505060606128b587828801612621565b91505092959194509250565b5f805f606084860312156128d8576128d76125c3565b5b5f6128e586828701612621565b93505060206128f686828701612621565b925050604061290786828701612621565b9150509250925092565b5f61291b826125c7565b9050919050565b61292b81612911565b8114612935575f80fd5b50565b5f8135905061294681612922565b92915050565b5f612956826125c7565b9050919050565b6129668161294c565b8114612970575f80fd5b50565b5f813590506129818161295d565b92915050565b5f805f806080858703121561299f5761299e6125c3565b5b5f6129ac87828801612938565b94505060206129bd87828801612973565b93505060406129ce87828801612621565b92505060606129df878288016125ee565b91505092959194509250565b6129f481612602565b82525050565b602082015f820151612a0e5f8501826129eb565b50505050565b5f602082019050612a275f8301846129fa565b92915050565b7f4e487b71000000000000000000000000000000000000000000000000000000005f52601160045260245ffd5b5f612a6482612602565b9150612a6f83612602565b9250828202612a7d81612602565b91508282048414831517612a9457612a93612a2d565b5b5092915050565b7f4e487b71000000000000000000000000000000000000000000000000000000005f52601260045260245ffd5b5f612ad282612602565b9150612add83612602565b925082612aed57612aec612a9b565b5b828204905092915050565b5f612b0282612602565b9150612b0d83612602565b9250828203905081811115612b2557612b24612a2d565b5b92915050565b5f61ffff82169050919050565b612b4181612b2b565b82525050565b5f608082019050612b5a5f830187612754565b612b6760208301866126f3565b612b746040830185612754565b612b816060830184612b38565b95945050505050565b5f60a082019050612b9d5f830188612754565b612baa60208301876126f3565b612bb760408301866126f3565b612bc46060830185612b38565b612bd16080830184612754565b9695505050505050565b5f80fd5b5f601f19601f8301169050919050565b7f4e487b71000000000000000000000000000000000000000000000000000000005f52604160045260245ffd5b612c2582612bdf565b810181811067ffffffffffffffff82111715612c4457612c43612bef565b5b80604052505050565b5f612c566125ba565b9050612c628282612c1c565b919050565b5f81519050612c758161260b565b92915050565b5f60208284031215612c9057612c8f612bdb565b5b612c9a6020612c4d565b90505f612ca984828501612c67565b5f8301525092915050565b5f6fffffffffffffffffffffffffffffffff82169050919050565b612cd881612cb4565b8114612ce2575f80fd5b50565b5f81519050612cf381612ccf565b92915050565b5f64ffffffffff82169050919050565b612d1281612cf9565b8114612d1c575f80fd5b50565b5f81519050612d2d81612d09565b92915050565b612d3c81612b2b565b8114612d46575f80fd5b50565b5f81519050612d5781612d33565b92915050565b5f81519050612d6b816125d8565b92915050565b5f6101e08284031215612d8757612d86612bdb565b5b612d926101e0612c4d565b90505f612da184828501612c7b565b5f830152506020612db484828501612ce5565b6020830152506040612dc884828501612ce5565b6040830152506060612ddc84828501612ce5565b6060830152506080612df084828501612ce5565b60808301525060a0612e0484828501612ce5565b60a08301525060c0612e1884828501612d1f565b60c08301525060e0612e2c84828501612d49565b60e083015250610100612e4184828501612d5d565b61010083015250610120612e5784828501612d5d565b61012083015250610140612e6d84828501612d5d565b61014083015250610160612e8384828501612d5d565b61016083015250610180612e9984828501612ce5565b610180830152506101a0612eaf84828501612ce5565b6101a0830152506101c0612ec584828501612ce5565b6101c08301525092915050565b5f6101e08284031215612ee857612ee76125c3565b5b5f612ef584828501612d71565b91505092915050565b5f612f0882612602565b9150612f1383612602565b925082612f2357612f22612a9b565b5b828206905092915050565b5f612f3882612602565b9150612f4383612602565b9250828201905080821115612f5b57612f5a612a2d565b5b92915050565b5f819050919050565b5f67ffffffffffffffff82169050919050565b5f612f97612f92612f8d84612f61565b612546565b612f6a565b9050919050565b612fa781612f7d565b82525050565b5f602082019050612fc05f830184612f9e565b92915050565b5f60208284031215612fdb57612fda6125c3565b5b5f612fe884828501612c7b565b91505092915050565b5f6060820190506130045f830186612754565b6130116020830185612754565b61301e60408301846126f3565b949350505050565b5f6040820190506130395f830185612754565b61304660208301846126f3565b9392505050565b5f6040820190506130605f830185612754565b61306d6020830184612754565b9392505050565b5f60208284031215613089576130886125c3565b5b5f61309684828501612c67565b91505092915050565b5f81519050919050565b5f81905092915050565b5f5b838110156130d05780820151818401526020810190506130b5565b5f8484015250505050565b5f6130e58261309f565b6130ef81856130a9565b93506130ff8185602086016130b3565b80840191505092915050565b5f61311682846130db565b915081905092915050565b5f8151905061312f81612640565b92915050565b5f6020828403121561314a576131496125c3565b5b5f61315784828501613121565b91505092915050565b5f819050919050565b5f61318361317e61317984613160565b612546565b612602565b9050919050565b61319381613169565b82525050565b5f6040820190506131ac5f830185612754565b6131b9602083018461318a565b939250505056fea2646970667358221220f8235b60c9516724d830969739f4dbaac1f05faad79798fec27e36b1a459179164736f6c63430008180033",
  "linkReferences": {},
  "deployedLinkReferences": {}
}