{
  "_format": "hh-sol-artifact-1",
  "contractName": "ZeroOFTAdapter",
  "sourceName": "contracts/ZeroOFTAdapter.sol",
  "abi": [
    {
      "inputs": [
        {
          "internalType": "address",
          "name": "_token",
          "type": "address"
        },
        {
          "internalType": "address",
          "name": "_layerZeroEndpoint",
          "type": "address"
        },
        {
          "internalType": "address",
          "name": "_owner",
          "type": "address"
        }
      ],
      "stateMutability": "nonpayable",
      "type": "constructor"
    },
    {
      "inputs": [
        {
          "internalType": "address",
          "name": "target",
          "type": "address"
        }
      ],
      "name": "AddressEmptyCode",
      "type": "error"
    },
    {
      "inputs": [
        {
          "internalType": "address",
          "name": "account",
          "type": "address"
        }
      ],
      "name": "AddressInsufficientBalance",
      "type": "error"
    },
    {
      "inputs": [],
      "name": "FailedInnerCall",
      "type": "error"
    },
    {
      "inputs": [],
      "name": "InvalidDelegate",
      "type": "error"
    },
    {
      "inputs": [],
      "name": "InvalidEndpointCall",
      "type": "error"
    },
    {
      "inputs": [],
      "name": "InvalidLocalDecimals",
      "type": "error"
    },
    {
      "inputs": [
        {
          "internalType": "bytes",
          "name": "options",
          "type": "bytes"
        }
      ],
      "name": "InvalidOptions",
      "type": "error"
    },
    {
      "inputs": [],
      "name": "LzTokenUnavailable",
      "type": "error"
    },
    {
      "inputs": [
        {
          "internalType": "uint32",
          "name": "eid",
          "type": "uint32"
        }
      ],
      "name": "NoPeer",
      "type": "error"
    },
    {
      "inputs": [
        {
          "internalType": "uint256",
          "name": "msgValue",
          "type": "uint256"
        }
      ],
      "name": "NotEnoughNative",
      "type": "error"
    },
    {
      "inputs": [
        {
          "internalType": "address",
          "name": "addr",
          "type": "address"
        }
      ],
      "name": "OnlyEndpoint",
      "type": "error"
    },
    {
      "inputs": [
        {
          "internalType": "uint32",
          "name": "eid",
          "type": "uint32"
        },
        {
          "internalType": "bytes32",
          "name": "sender",
          "type": "bytes32"
        }
      ],
      "name": "OnlyPeer",
      "type": "error"
    },
    {
      "inputs": [],
      "name": "OnlySelf",
      "type": "error"
    },
    {
      "inputs": [
        {
          "internalType": "address",
          "name": "owner",
          "type": "address"
        }
      ],
      "name": "OwnableInvalidOwner",
      "type": "error"
    },
    {
      "inputs": [
        {
          "internalType": "address",
          "name": "account",
          "type": "address"
        }
      ],
      "name": "OwnableUnauthorizedAccount",
      "type": "error"
    },
    {
      "inputs": [
        {
          "internalType": "address",
          "name": "token",
          "type": "address"
        }
      ],
      "name": "SafeERC20FailedOperation",
      "type": "error"
    },
    {
      "inputs": [
        {
          "internalType": "bytes",
          "name": "result",
          "type": "bytes"
        }
      ],
      "name": "SimulationResult",
      "type": "error"
    },
    {
      "inputs": [
        {
          "internalType": "uint256",
          "name": "amountLD",
          "type": "uint256"
        },
        {
          "internalType": "uint256",
          "name": "minAmountLD",
          "type": "uint256"
        }
      ],
      "name": "SlippageExceeded",
      "type": "error"
    },
    {
      "anonymous": false,
      "inputs": [
        {
          "components": [
            {
              "internalType": "uint32",
              "name": "eid",
              "type": "uint32"
            },
            {
              "internalType": "uint16",
              "name": "msgType",
              "type": "uint16"
            },
            {
              "internalType": "bytes",
              "name": "options",
              "type": "bytes"
            }
          ],
          "indexed": false,
          "internalType": "struct EnforcedOptionParam[]",
          "name": "_enforcedOptions",
          "type": "tuple[]"
        }
      ],
      "name": "EnforcedOptionSet",
      "type": "event"
    },
    {
      "anonymous": false,
      "inputs": [
        {
          "indexed": false,
          "internalType": "address",
          "name": "inspector",
          "type": "address"
        }
      ],
      "name": "MsgInspectorSet",
      "type": "event"
    },
    {
      "anonymous": false,
      "inputs": [
        {
          "indexed": true,
          "internalType": "bytes32",
          "name": "guid",
          "type": "bytes32"
        },
        {
          "indexed": false,
          "internalType": "uint32",
          "name": "srcEid",
          "type": "uint32"
        },
        {
          "indexed": true,
          "internalType": "address",
          "name": "toAddress",
          "type": "address"
        },
        {
          "indexed": false,
          "internalType": "uint256",
          "name": "amountReceivedLD",
          "type": "uint256"
        }
      ],
      "name": "OFTReceived",
      "type": "event"
    },
    {
      "anonymous": false,
      "inputs": [
        {
          "indexed": true,
          "internalType": "bytes32",
          "name": "guid",
          "type": "bytes32"
        },
        {
          "indexed": false,
          "internalType": "uint32",
          "name": "dstEid",
          "type": "uint32"
        },
        {
          "indexed": true,
          "internalType": "address",
          "name": "fromAddress",
          "type": "address"
        },
        {
          "indexed": false,
          "internalType": "uint256",
          "name": "amountSentLD",
          "type": "uint256"
        },
        {
          "indexed": false,
          "internalType": "uint256",
          "name": "amountReceivedLD",
          "type": "uint256"
        }
      ],
      "name": "OFTSent",
      "type": "event"
    },
    {
      "anonymous": false,
      "inputs": [
        {
          "indexed": true,
          "internalType": "address",
          "name": "previousOwner",
          "type": "address"
        },
        {
          "indexed": true,
          "internalType": "address",
          "name": "newOwner",
          "type": "address"
        }
      ],
      "name": "OwnershipTransferred",
      "type": "event"
    },
    {
      "anonymous": false,
      "inputs": [
        {
          "indexed": false,
          "internalType": "uint32",
          "name": "eid",
          "type": "uint32"
        },
        {
          "indexed": false,
          "internalType": "bytes32",
          "name": "peer",
          "type": "bytes32"
        }
      ],
      "name": "PeerSet",
      "type": "event"
    },
    {
      "anonymous": false,
      "inputs": [
        {
          "indexed": false,
          "internalType": "address",
          "name": "preCrimeAddress",
          "type": "address"
        }
      ],
      "name": "PreCrimeSet",
      "type": "event"
    },
    {
      "inputs": [],
      "name": "SEND",
      "outputs": [
        {
          "internalType": "uint16",
          "name": "",
          "type": "uint16"
        }
      ],
      "stateMutability": "view",
      "type": "function"
    },
    {
      "inputs": [],
      "name": "SEND_AND_CALL",
      "outputs": [
        {
          "internalType": "uint16",
          "name": "",
          "type": "uint16"
        }
      ],
      "stateMutability": "view",
      "type": "function"
    },
    {
      "inputs": [
        {
          "components": [
            {
              "internalType": "uint32",
              "name": "srcEid",
              "type": "uint32"
            },
            {
              "internalType": "bytes32",
              "name": "sender",
              "type": "bytes32"
            },
            {
              "internalType": "uint64",
              "name": "nonce",
              "type": "uint64"
            }
          ],
          "internalType": "struct Origin",
          "name": "origin",
          "type": "tuple"
        }
      ],
      "name": "allowInitializePath",
      "outputs": [
        {
          "internalType": "bool",
          "name": "",
          "type": "bool"
        }
      ],
      "stateMutability": "view",
      "type": "function"
    },
    {
      "inputs": [],
      "name": "approvalRequired",
      "outputs": [
        {
          "internalType": "bool",
          "name": "",
          "type": "bool"
        }
      ],
      "stateMutability": "pure",
      "type": "function"
    },
    {
      "inputs": [
        {
          "internalType": "uint32",
          "name": "_eid",
          "type": "uint32"
        },
        {
          "internalType": "uint16",
          "name": "_msgType",
          "type": "uint16"
        },
        {
          "internalType": "bytes",
          "name": "_extraOptions",
          "type": "bytes"
        }
      ],
      "name": "combineOptions",
      "outputs": [
        {
          "internalType": "bytes",
          "name": "",
          "type": "bytes"
        }
      ],
      "stateMutability": "view",
      "type": "function"
    },
    {
      "inputs": [],
      "name": "decimalConversionRate",
      "outputs": [
        {
          "internalType": "uint256",
          "name": "",
          "type": "uint256"
        }
      ],
      "stateMutability": "view",
      "type": "function"
    },
    {
      "inputs": [],
      "name": "endpoint",
      "outputs": [
        {
          "internalType": "contract ILayerZeroEndpointV2",
          "name": "",
          "type": "address"
        }
      ],
      "stateMutability": "view",
      "type": "function"
    },
    {
      "inputs": [
        {
          "internalType": "uint32",
          "name": "eid",
          "type": "uint32"
        },
        {
          "internalType": "uint16",
          "name": "msgType",
          "type": "uint16"
        }
      ],
      "name": "enforcedOptions",
      "outputs": [
        {
          "internalType": "bytes",
          "name": "enforcedOption",
          "type": "bytes"
        }
      ],
      "stateMutability": "view",
      "type": "function"
    },
    {
      "inputs": [
        {
          "components": [
            {
              "internalType": "uint32",
              "name": "srcEid",
              "type": "uint32"
            },
            {
              "internalType": "bytes32",
              "name": "sender",
              "type": "bytes32"
            },
            {
              "internalType": "uint64",
              "name": "nonce",
              "type": "uint64"
            }
          ],
          "internalType": "struct Origin",
          "name": "",
          "type": "tuple"
        },
        {
          "internalType": "bytes",
          "name": "",
          "type": "bytes"
        },
        {
          "internalType": "address",
          "name": "_sender",
          "type": "address"
        }
      ],
      "name": "isComposeMsgSender",
      "outputs": [
        {
          "internalType": "bool",
          "name": "",
          "type": "bool"
        }
      ],
      "stateMutability": "view",
      "type": "function"
    },
    {
      "inputs": [
        {
          "internalType": "uint32",
          "name": "_eid",
          "type": "uint32"
        },
        {
          "internalType": "bytes32",
          "name": "_peer",
          "type": "bytes32"
        }
      ],
      "name": "isPeer",
      "outputs": [
        {
          "internalType": "bool",
          "name": "",
          "type": "bool"
        }
      ],
      "stateMutability": "view",
      "type": "function"
    },
    {
      "inputs": [
        {
          "components": [
            {
              "internalType": "uint32",
              "name": "srcEid",
              "type": "uint32"
            },
            {
              "internalType": "bytes32",
              "name": "sender",
              "type": "bytes32"
            },
            {
              "internalType": "uint64",
              "name": "nonce",
              "type": "uint64"
            }
          ],
          "internalType": "struct Origin",
          "name": "_origin",
          "type": "tuple"
        },
        {
          "internalType": "bytes32",
          "name": "_guid",
          "type": "bytes32"
        },
        {
          "internalType": "bytes",
          "name": "_message",
          "type": "bytes"
        },
        {
          "internalType": "address",
          "name": "_executor",
          "type": "address"
        },
        {
          "internalType": "bytes",
          "name": "_extraData",
          "type": "bytes"
        }
      ],
      "name": "lzReceive",
      "outputs": [],
      "stateMutability": "payable",
      "type": "function"
    },
    {
      "inputs": [
        {
          "components": [
            {
              "components": [
                {
                  "internalType": "uint32",
                  "name": "srcEid",
                  "type": "uint32"
                },
                {
                  "internalType": "bytes32",
                  "name": "sender",
                  "type": "bytes32"
                },
                {
                  "internalType": "uint64",
                  "name": "nonce",
                  "type": "uint64"
                }
              ],
              "internalType": "struct Origin",
              "name": "origin",
              "type": "tuple"
            },
            {
              "internalType": "uint32",
              "name": "dstEid",
              "type": "uint32"
            },
            {
              "internalType": "address",
              "name": "receiver",
              "type": "address"
            },
            {
              "internalType": "bytes32",
              "name": "guid",
              "type": "bytes32"
            },
            {
              "internalType": "uint256",
              "name": "value",
              "type": "uint256"
            },
            {
              "internalType": "address",
              "name": "executor",
              "type": "address"
            },
            {
              "internalType": "bytes",
              "name": "message",
              "type": "bytes"
            },
            {
              "internalType": "bytes",
              "name": "extraData",
              "type": "bytes"
            }
          ],
          "internalType": "struct InboundPacket[]",
          "name": "_packets",
          "type": "tuple[]"
        }
      ],
      "name": "lzReceiveAndRevert",
      "outputs": [],
      "stateMutability": "payable",
      "type": "function"
    },
    {
      "inputs": [
        {
          "components": [
            {
              "internalType": "uint32",
              "name": "srcEid",
              "type": "uint32"
            },
            {
              "internalType": "bytes32",
              "name": "sender",
              "type": "bytes32"
            },
            {
              "internalType": "uint64",
              "name": "nonce",
              "type": "uint64"
            }
          ],
          "internalType": "struct Origin",
          "name": "_origin",
          "type": "tuple"
        },
        {
          "internalType": "bytes32",
          "name": "_guid",
          "type": "bytes32"
        },
        {
          "internalType": "bytes",
          "name": "_message",
          "type": "bytes"
        },
        {
          "internalType": "address",
          "name": "_executor",
          "type": "address"
        },
        {
          "internalType": "bytes",
          "name": "_extraData",
          "type": "bytes"
        }
      ],
      "name": "lzReceiveSimulate",
      "outputs": [],
      "stateMutability": "payable",
      "type": "function"
    },
    {
      "inputs": [],
      "name": "msgInspector",
      "outputs": [
        {
          "internalType": "address",
          "name": "",
          "type": "address"
        }
      ],
      "stateMutability": "view",
      "type": "function"
    },
    {
      "inputs": [
        {
          "internalType": "uint32",
          "name": "",
          "type": "uint32"
        },
        {
          "internalType": "bytes32",
          "name": "",
          "type": "bytes32"
        }
      ],
      "name": "nextNonce",
      "outputs": [
        {
          "internalType": "uint64",
          "name": "nonce",
          "type": "uint64"
        }
      ],
      "stateMutability": "view",
      "type": "function"
    },
    {
      "inputs": [],
      "name": "oApp",
      "outputs": [
        {
          "internalType": "address",
          "name": "",
          "type": "address"
        }
      ],
      "stateMutability": "view",
      "type": "function"
    },
    {
      "inputs": [],
      "name": "oAppVersion",
      "outputs": [
        {
          "internalType": "uint64",
          "name": "senderVersion",
          "type": "uint64"
        },
        {
          "internalType": "uint64",
          "name": "receiverVersion",
          "type": "uint64"
        }
      ],
      "stateMutability": "pure",
      "type": "function"
    },
    {
      "inputs": [],
      "name": "oftVersion",
      "outputs": [
        {
          "internalType": "bytes4",
          "name": "interfaceId",
          "type": "bytes4"
        },
        {
          "internalType": "uint64",
          "name": "version",
          "type": "uint64"
        }
      ],
      "stateMutability": "pure",
      "type": "function"
    },
    {
      "inputs": [],
      "name": "owner",
      "outputs": [
        {
          "internalType": "address",
          "name": "",
          "type": "address"
        }
      ],
      "stateMutability": "view",
      "type": "function"
    },
    {
      "inputs": [
        {
          "internalType": "uint32",
          "name": "eid",
          "type": "uint32"
        }
      ],
      "name": "peers",
      "outputs": [
        {
          "internalType": "bytes32",
          "name": "peer",
          "type": "bytes32"
        }
      ],
      "stateMutability": "view",
      "type": "function"
    },
    {
      "inputs": [],
      "name": "preCrime",
      "outputs": [
        {
          "internalType": "address",
          "name": "",
          "type": "address"
        }
      ],
      "stateMutability": "view",
      "type": "function"
    },
    {
      "inputs": [
        {
          "components": [
            {
              "internalType": "uint32",
              "name": "dstEid",
              "type": "uint32"
            },
            {
              "internalType": "bytes32",
              "name": "to",
              "type": "bytes32"
            },
            {
              "internalType": "uint256",
              "name": "amountLD",
              "type": "uint256"
            },
            {
              "internalType": "uint256",
              "name": "minAmountLD",
              "type": "uint256"
            },
            {
              "internalType": "bytes",
              "name": "extraOptions",
              "type": "bytes"
            },
            {
              "internalType": "bytes",
              "name": "composeMsg",
              "type": "bytes"
            },
            {
              "internalType": "bytes",
              "name": "oftCmd",
              "type": "bytes"
            }
          ],
          "internalType": "struct SendParam",
          "name": "_sendParam",
          "type": "tuple"
        }
      ],
      "name": "quoteOFT",
      "outputs": [
        {
          "components": [
            {
              "internalType": "uint256",
              "name": "minAmountLD",
              "type": "uint256"
            },
            {
              "internalType": "uint256",
              "name": "maxAmountLD",
              "type": "uint256"
            }
          ],
          "internalType": "struct OFTLimit",
          "name": "oftLimit",
          "type": "tuple"
        },
        {
          "components": [
            {
              "internalType": "int256",
              "name": "feeAmountLD",
              "type": "int256"
            },
            {
              "internalType": "string",
              "name": "description",
              "type": "string"
            }
          ],
          "internalType": "struct OFTFeeDetail[]",
          "name": "oftFeeDetails",
          "type": "tuple[]"
        },
        {
          "components": [
            {
              "internalType": "uint256",
              "name": "amountSentLD",
              "type": "uint256"
            },
            {
              "internalType": "uint256",
              "name": "amountReceivedLD",
              "type": "uint256"
            }
          ],
          "internalType": "struct OFTReceipt",
          "name": "oftReceipt",
          "type": "tuple"
        }
      ],
      "stateMutability": "view",
      "type": "function"
    },
    {
      "inputs": [
        {
          "components": [
            {
              "internalType": "uint32",
              "name": "dstEid",
              "type": "uint32"
            },
            {
              "internalType": "bytes32",
              "name": "to",
              "type": "bytes32"
            },
            {
              "internalType": "uint256",
              "name": "amountLD",
              "type": "uint256"
            },
            {
              "internalType": "uint256",
              "name": "minAmountLD",
              "type": "uint256"
            },
            {
              "internalType": "bytes",
              "name": "extraOptions",
              "type": "bytes"
            },
            {
              "internalType": "bytes",
              "name": "composeMsg",
              "type": "bytes"
            },
            {
              "internalType": "bytes",
              "name": "oftCmd",
              "type": "bytes"
            }
          ],
          "internalType": "struct SendParam",
          "name": "_sendParam",
          "type": "tuple"
        },
        {
          "internalType": "bool",
          "name": "_payInLzToken",
          "type": "bool"
        }
      ],
      "name": "quoteSend",
      "outputs": [
        {
          "components": [
            {
              "internalType": "uint256",
              "name": "nativeFee",
              "type": "uint256"
            },
            {
              "internalType": "uint256",
              "name": "lzTokenFee",
              "type": "uint256"
            }
          ],
          "internalType": "struct MessagingFee",
          "name": "msgFee",
          "type": "tuple"
        }
      ],
      "stateMutability": "view",
      "type": "function"
    },
    {
      "inputs": [],
      "name": "renounceOwnership",
      "outputs": [],
      "stateMutability": "nonpayable",
      "type": "function"
    },
    {
      "inputs": [
        {
          "components": [
            {
              "internalType": "uint32",
              "name": "dstEid",
              "type": "uint32"
            },
            {
              "internalType": "bytes32",
              "name": "to",
              "type": "bytes32"
            },
            {
              "internalType": "uint256",
              "name": "amountLD",
              "type": "uint256"
            },
            {
              "internalType": "uint256",
              "name": "minAmountLD",
              "type": "uint256"
            },
            {
              "internalType": "bytes",
              "name": "extraOptions",
              "type": "bytes"
            },
            {
              "internalType": "bytes",
              "name": "composeMsg",
              "type": "bytes"
            },
            {
              "internalType": "bytes",
              "name": "oftCmd",
              "type": "bytes"
            }
          ],
          "internalType": "struct SendParam",
          "name": "_sendParam",
          "type": "tuple"
        },
        {
          "components": [
            {
              "internalType": "uint256",
              "name": "nativeFee",
              "type": "uint256"
            },
            {
              "internalType": "uint256",
              "name": "lzTokenFee",
              "type": "uint256"
            }
          ],
          "internalType": "struct MessagingFee",
          "name": "_fee",
          "type": "tuple"
        },
        {
          "internalType": "address",
          "name": "_refundAddress",
          "type": "address"
        }
      ],
      "name": "send",
      "outputs": [
        {
          "components": [
            {
              "internalType": "bytes32",
              "name": "guid",
              "type": "bytes32"
            },
            {
              "internalType": "uint64",
              "name": "nonce",
              "type": "uint64"
            },
            {
              "components": [
                {
                  "internalType": "uint256",
                  "name": "nativeFee",
                  "type": "uint256"
                },
                {
                  "internalType": "uint256",
                  "name": "lzTokenFee",
                  "type": "uint256"
                }
              ],
              "internalType": "struct MessagingFee",
              "name": "fee",
              "type": "tuple"
            }
          ],
          "internalType": "struct MessagingReceipt",
          "name": "msgReceipt",
          "type": "tuple"
        },
        {
          "components": [
            {
              "internalType": "uint256",
              "name": "amountSentLD",
              "type": "uint256"
            },
            {
              "internalType": "uint256",
              "name": "amountReceivedLD",
              "type": "uint256"
            }
          ],
          "internalType": "struct OFTReceipt",
          "name": "oftReceipt",
          "type": "tuple"
        }
      ],
      "stateMutability": "payable",
      "type": "function"
    },
    {
      "inputs": [
        {
          "internalType": "address",
          "name": "_delegate",
          "type": "address"
        }
      ],
      "name": "setDelegate",
      "outputs": [],
      "stateMutability": "nonpayable",
      "type": "function"
    },
    {
      "inputs": [
        {
          "components": [
            {
              "internalType": "uint32",
              "name": "eid",
              "type": "uint32"
            },
            {
              "internalType": "uint16",
              "name": "msgType",
              "type": "uint16"
            },
            {
              "internalType": "bytes",
              "name": "options",
              "type": "bytes"
            }
          ],
          "internalType": "struct EnforcedOptionParam[]",
          "name": "_enforcedOptions",
          "type": "tuple[]"
        }
      ],
      "name": "setEnforcedOptions",
      "outputs": [],
      "stateMutability": "nonpayable",
      "type": "function"
    },
    {
      "inputs": [
        {
          "internalType": "address",
          "name": "_msgInspector",
          "type": "address"
        }
      ],
      "name": "setMsgInspector",
      "outputs": [],
      "stateMutability": "nonpayable",
      "type": "function"
    },
    {
      "inputs": [
        {
          "internalType": "uint32",
          "name": "_eid",
          "type": "uint32"
        },
        {
          "internalType": "bytes32",
          "name": "_peer",
          "type": "bytes32"
        }
      ],
      "name": "setPeer",
      "outputs": [],
      "stateMutability": "nonpayable",
      "type": "function"
    },
    {
      "inputs": [
        {
          "internalType": "address",
          "name": "_preCrime",
          "type": "address"
        }
      ],
      "name": "setPreCrime",
      "outputs": [],
      "stateMutability": "nonpayable",
      "type": "function"
    },
    {
      "inputs": [],
      "name": "sharedDecimals",
      "outputs": [
        {
          "internalType": "uint8",
          "name": "",
          "type": "uint8"
        }
      ],
      "stateMutability": "pure",
      "type": "function"
    },
    {
      "inputs": [],
      "name": "token",
      "outputs": [
        {
          "internalType": "address",
          "name": "",
          "type": "address"
        }
      ],
      "stateMutability": "view",
      "type": "function"
    },
    {
      "inputs": [
        {
          "internalType": "address",
          "name": "newOwner",
          "type": "address"
        }
      ],
      "name": "transferOwnership",
      "outputs": [],
      "stateMutability": "nonpayable",
      "type": "function"
    }
  ],
  "bytecode": "0x60e06040523480156200001157600080fd5b5060405162002f6038038062002f60833981016040819052620000349162000254565b828282826001600160a01b031663313ce5676040518163ffffffff1660e01b8152600401602060405180830381865afa15801562000076573d6000803e3d6000fd5b505050506040513d601f19601f820116820180604052508101906200009c91906200029e565b8282818181818a6001600160a01b038116620000d257604051631e4fbdf760e01b81526000600482015260240160405180910390fd5b620000dd81620001e2565b506001600160a01b0380831660805281166200010c57604051632d618d8160e21b815260040160405180910390fd5b60805160405163ca5eb5e160e01b81526001600160a01b0383811660048301529091169063ca5eb5e190602401600060405180830381600087803b1580156200015457600080fd5b505af115801562000169573d6000803e3d6000fd5b5050505050505050620001816200023260201b60201c565b60ff168360ff161015620001a8576040516301e9714b60e41b815260040160405180910390fd5b620001b5600684620002e0565b620001c290600a620003ff565b60a0525050506001600160a01b0390921660c05250620004109350505050565b600080546001600160a01b038381166001600160a01b0319831681178455604051919092169283917f8be0079c531659141344cd1fd0a4f28419497f9722a3daafe3b4186f6b6457e09190a35050565b600690565b80516001600160a01b03811681146200024f57600080fd5b919050565b6000806000606084860312156200026a57600080fd5b620002758462000237565b9250620002856020850162000237565b9150620002956040850162000237565b90509250925092565b600060208284031215620002b157600080fd5b815160ff81168114620002c357600080fd5b9392505050565b634e487b7160e01b600052601160045260246000fd5b60ff8281168282160390811115620002fc57620002fc620002ca565b92915050565b600181815b8085111562000343578160001904821115620003275762000327620002ca565b808516156200033557918102915b93841c939080029062000307565b509250929050565b6000826200035c57506001620002fc565b816200036b57506000620002fc565b81600181146200038457600281146200038f57620003af565b6001915050620002fc565b60ff841115620003a357620003a3620002ca565b50506001821b620002fc565b5060208310610133831016604e8410600b8410161715620003d4575081810a620002fc565b620003e0838362000302565b8060001904821115620003f757620003f7620002ca565b029392505050565b6000620002c360ff8416836200034b565b60805160a05160c051612acc6200049460003960008181610669015281816115f001526117e90152600081816104e201528181611730015281816117ac015261189c0152600081816103e40152818161078001528181610e19015281816110860152818161131501528181611654015281816119d40152611a8d0152612acc6000f3fe6080604052600436106101ee5760003560e01c806382413eac1161010d578063bc70b354116100a0578063d045a0dc1161006f578063d045a0dc14610607578063d42438851461061a578063f2fde38b1461063a578063fc0c546a1461065a578063ff7bd03d1461068d57600080fd5b8063bc70b35414610593578063bd815db0146105b3578063c7c7f5b3146105c6578063ca5eb5e1146105e757600080fd5b80639f68b964116100dc5780639f68b96414610512578063b731ea0a14610526578063b98bd07014610546578063bb0b6a531461056657600080fd5b806382413eac14610476578063857749b0146104965780638da5cb5b146104b2578063963efcaa146104d057600080fd5b80633b6f743b116101855780635e280f11116101545780635e280f11146103d25780636fc1b31e14610406578063715018a6146104265780637d25a05e1461043b57600080fd5b80633b6f743b1461031e57806352ae28791461034b5780635535d4611461035e5780635a0dfe4d1461038b57600080fd5b8063156a0d0f116101c1578063156a0d0f146102a057806317442b70146102c75780631f5e1334146102e95780633400288b146102fe57600080fd5b80630d35b415146101f3578063111ecdad1461022b57806313137d6514610263578063134d4f2514610278575b600080fd5b3480156101ff57600080fd5b5061021361020e366004611cac565b6106ad565b60405161022293929190611d30565b60405180910390f35b34801561023757600080fd5b5060045461024b906001600160a01b031681565b6040516001600160a01b039091168152602001610222565b610276610271366004611e38565b61077e565b005b34801561028457600080fd5b5061028d600281565b60405161ffff9091168152602001610222565b3480156102ac57600080fd5b506040805162b9270b60e21b81526001602082015201610222565b3480156102d357600080fd5b5060408051600181526002602082015201610222565b3480156102f557600080fd5b5061028d600181565b34801561030a57600080fd5b50610276610319366004611ef0565b61083e565b34801561032a57600080fd5b5061033e610339366004611f28565b610854565b6040516102229190611f79565b34801561035757600080fd5b503061024b565b34801561036a57600080fd5b5061037e610379366004611fa2565b6108bd565b6040516102229190611fd5565b34801561039757600080fd5b506103c26103a6366004611ef0565b63ffffffff919091166000908152600160205260409020541490565b6040519015158152602001610222565b3480156103de57600080fd5b5061024b7f000000000000000000000000000000000000000000000000000000000000000081565b34801561041257600080fd5b50610276610421366004611fe8565b610962565b34801561043257600080fd5b506102766109bf565b34801561044757600080fd5b5061045e610456366004611ef0565b600092915050565b6040516001600160401b039091168152602001610222565b34801561048257600080fd5b506103c2610491366004612005565b6109d3565b3480156104a257600080fd5b5060405160068152602001610222565b3480156104be57600080fd5b506000546001600160a01b031661024b565b3480156104dc57600080fd5b506105047f000000000000000000000000000000000000000000000000000000000000000081565b604051908152602001610222565b34801561051e57600080fd5b5060016103c2565b34801561053257600080fd5b5060025461024b906001600160a01b031681565b34801561055257600080fd5b506102766105613660046120af565b6109e8565b34801561057257600080fd5b506105046105813660046120f0565b60016020526000908152604090205481565b34801561059f57600080fd5b5061037e6105ae36600461210b565b6109fa565b6102766105c13660046120af565b610b6d565b6105d96105d436600461216b565b610cf7565b6040516102229291906121d8565b3480156105f357600080fd5b50610276610602366004611fe8565b610df2565b610276610615366004611e38565b610e78565b34801561062657600080fd5b50610276610635366004611fe8565b610ea7565b34801561064657600080fd5b50610276610655366004611fe8565b610efd565b34801561066657600080fd5b507f000000000000000000000000000000000000000000000000000000000000000061024b565b34801561069957600080fd5b506103c26106a836600461222a565b610f3b565b604080518082019091526000808252602082015260606106e0604051806040016040528060008152602001600081525090565b60408051808201825260008082526001600160401b0360208084018290528451838152908101909452919550918261073b565b6040805180820190915260008152606060208201528152602001906001900390816107135790505b509350600080610760604089013560608a013561075b60208c018c6120f0565b610f71565b60408051808201909152918252602082015296989597505050505050565b7f00000000000000000000000000000000000000000000000000000000000000006001600160a01b031633146107ce576040516391ac5e4f60e01b81523360048201526024015b60405180910390fd5b602087018035906107e8906107e3908a6120f0565b610fb5565b14610826576107fa60208801886120f0565b60405163309afaf360e21b815263ffffffff9091166004820152602088013560248201526044016107c5565b61083587878787878787610ff1565b50505050505050565b610846611158565b6108508282611185565b5050565b604080518082019091526000808252602082015260006108846040850135606086013561075b60208801886120f0565b91505060008061089486846111db565b90925090506108b16108a960208801886120f0565b8383886112ff565b93505050505b92915050565b6003602090815260009283526040808420909152908252902080546108e19061225c565b80601f016020809104026020016040519081016040528092919081815260200182805461090d9061225c565b801561095a5780601f1061092f5761010080835404028352916020019161095a565b820191906000526020600020905b81548152906001019060200180831161093d57829003601f168201915b505050505081565b61096a611158565b600480546001600160a01b0319166001600160a01b0383169081179091556040519081527ff0be4f1e87349231d80c36b33f9e8639658eeaf474014dee15a3e6a4d4414197906020015b60405180910390a150565b6109c7611158565b6109d160006113e0565b565b6001600160a01b03811630145b949350505050565b6109f0611158565b6108508282611430565b63ffffffff8416600090815260036020908152604080832061ffff87168452909152812080546060929190610a2e9061225c565b80601f0160208091040260200160405190810160405280929190818152602001828054610a5a9061225c565b8015610aa75780601f10610a7c57610100808354040283529160200191610aa7565b820191906000526020600020905b815481529060010190602001808311610a8a57829003601f168201915b505050505090508051600003610af75783838080601f0160208091040260200160405190810160405280939291908181526020018383808284376000920191909152509294506109e09350505050565b6000839003610b075790506109e0565b60028310610b5057610b198484611589565b80610b278460028188612290565b604051602001610b39939291906122ba565b6040516020818303038152906040529150506109e0565b8383604051639a6d49cd60e01b81526004016107c592919061230b565b60005b81811015610c765736838383818110610b8b57610b8b61231f565b9050602002810190610b9d9190612335565b9050610bd0610baf60208301836120f0565b602083013563ffffffff919091166000908152600160205260409020541490565b610bda5750610c6e565b3063d045a0dc60c08301358360a0810135610bf9610100830183612356565b610c0a610100890160e08a01611fe8565b610c186101208a018a612356565b6040518963ffffffff1660e01b8152600401610c3a97969594939291906123b1565b6000604051808303818588803b158015610c5357600080fd5b505af1158015610c67573d6000803e3d6000fd5b5050505050505b600101610b70565b50336001600160a01b0316638e9e70996040518163ffffffff1660e01b8152600401600060405180830381865afa158015610cb5573d6000803e3d6000fd5b505050506040513d6000823e601f3d908101601f19168201604052610cdd919081019061245f565b604051638351eea760e01b81526004016107c59190611fd5565b610cff611c4d565b6040805180820190915260008082526020820152600080610d3633604089013560608a0135610d3160208c018c6120f0565b6115d0565b91509150600080610d4789846111db565b9092509050610d73610d5c60208b018b6120f0565b8383610d6d368d90038d018d612500565b8b611621565b60408051808201909152858152602080820186905282519298509096503391907f85496b760a4b7f8d66384b9df21b381f5d1b1e79f229a47aaf4c232edc2fe59a90610dc1908d018d6120f0565b6040805163ffffffff909216825260208201899052810187905260600160405180910390a350505050935093915050565b610dfa611158565b60405163ca5eb5e160e01b81526001600160a01b0382811660048301527f0000000000000000000000000000000000000000000000000000000000000000169063ca5eb5e190602401600060405180830381600087803b158015610e5d57600080fd5b505af1158015610e71573d6000803e3d6000fd5b5050505050565b333014610e985760405163029a949d60e31b815260040160405180910390fd5b61083587878787878787610826565b610eaf611158565b600280546001600160a01b0319166001600160a01b0383169081179091556040519081527fd48d879cef83a1c0bdda516f27b13ddb1b3f8bbac1c9e1511bb2a659c2427760906020016109b4565b610f05611158565b6001600160a01b038116610f2f57604051631e4fbdf760e01b8152600060048201526024016107c5565b610f38816113e0565b50565b6000602082018035906001908390610f5390866120f0565b63ffffffff1681526020810191909152604001600020541492915050565b600080610f7d8561172c565b915081905083811015610fad576040516371c4efed60e01b815260048101829052602481018590526044016107c5565b935093915050565b63ffffffff8116600090815260016020526040812054806108b75760405163f6ff4fb760e01b815263ffffffff841660048201526024016107c5565b60006110036110008787611763565b90565b9050600061102f8261101d6110188a8a611782565b6117a5565b61102a60208d018d6120f0565b6117da565b905060288611156110f657600061106c61104f60608c0160408d01612532565b61105c60208d018d6120f0565b846110678c8c611818565b611863565b604051633e5ac80960e11b81529091506001600160a01b037f00000000000000000000000000000000000000000000000000000000000000001690637cb59012906110c29086908d90600090879060040161254f565b600060405180830381600087803b1580156110dc57600080fd5b505af11580156110f0573d6000803e3d6000fd5b50505050505b6001600160a01b038216887fefed6d3500546b29533b128a29e3a94d70788727f0507505ac12eaf2e578fd9c61112f60208d018d6120f0565b6040805163ffffffff9092168252602082018690520160405180910390a3505050505050505050565b6000546001600160a01b031633146109d15760405163118cdaa760e01b81523360048201526024016107c5565b63ffffffff8216600081815260016020908152604091829020849055815192835282018390527f238399d427b947898edb290f5ff0f9109849b1c3ba196a42e35f00c50a54b98b91015b60405180910390a15050565b606080600061123885602001356111f186611895565b6111fe60a0890189612356565b8080601f0160208091040260200160405190810160405280939291908181526020018383808284376000920191909152506118c192505050565b909350905060008161124b57600161124e565b60025b905061126e61126060208801886120f0565b826105ae60808a018a612356565b6004549093506001600160a01b0316156112f6576004805460405163043a78eb60e01b81526001600160a01b039091169163043a78eb916112b3918891889101612580565b602060405180830381865afa1580156112d0573d6000803e3d6000fd5b505050506040513d601f19601f820116820180604052508101906112f491906125a5565b505b50509250929050565b60408051808201909152600080825260208201527f00000000000000000000000000000000000000000000000000000000000000006001600160a01b031663ddc28c586040518060a001604052808863ffffffff16815260200161136289610fb5565b8152602001878152602001868152602001851515815250306040518363ffffffff1660e01b81526004016113979291906125c2565b6040805180830381865afa1580156113b3573d6000803e3d6000fd5b505050506040513d601f19601f820116820180604052508101906113d7919061266b565b95945050505050565b600080546001600160a01b038381166001600160a01b0319831681178455604051919092169283917f8be0079c531659141344cd1fd0a4f28419497f9722a3daafe3b4186f6b6457e09190a35050565b60005b81811015611557576114758383838181106114505761145061231f565b90506020028101906114629190612687565b611470906040810190612356565b611589565b8282828181106114875761148761231f565b90506020028101906114999190612687565b6114a7906040810190612356565b600360008686868181106114bd576114bd61231f565b90506020028101906114cf9190612687565b6114dd9060208101906120f0565b63ffffffff1663ffffffff168152602001908152602001600020600086868681811061150b5761150b61231f565b905060200281019061151d9190612687565b61152e90604081019060200161269d565b61ffff16815260208101919091526040016000209161154e919083612708565b50600101611433565b507fbe4864a8e820971c0247f5992e2da559595f7bf076a21cb5928d443d2a13b67482826040516111cf9291906127c7565b60006115986002828486612290565b6115a1916128ab565b60f01c9050600381146115cb578282604051639a6d49cd60e01b81526004016107c592919061230b565b505050565b6000806115de858585610f71565b90925090506116186001600160a01b037f00000000000000000000000000000000000000000000000000000000000000001687308561193b565b94509492505050565b611629611c4d565b600061163884600001516119a8565b6020850151909150156116525761165284602001516119d0565b7f00000000000000000000000000000000000000000000000000000000000000006001600160a01b0316632637a450826040518060a001604052808b63ffffffff1681526020016116a28c610fb5565b81526020018a815260200189815260200160008960200151111515815250866040518463ffffffff1660e01b81526004016116de9291906125c2565b60806040518083038185885af11580156116fc573d6000803e3d6000fd5b50505050506040513d601f19601f8201168201806040525081019061172191906128db565b979650505050505050565b60007f00000000000000000000000000000000000000000000000000000000000000006117598184612942565b6108b79190612964565b60006117726020828486612290565b61177b91612989565b9392505050565b6000611792602860208486612290565b61179b916129a7565b60c01c9392505050565b60006108b77f00000000000000000000000000000000000000000000000000000000000000006001600160401b038416612964565b60006118106001600160a01b037f0000000000000000000000000000000000000000000000000000000000000000168585611ab2565b509092915050565b60606118278260288186612290565b8080601f016020809104026020016040519081016040528093929190818152602001838380828437600092019190915250929695505050505050565b60608484848460405160200161187c94939291906129d5565b6040516020818303038152906040529050949350505050565b60006108b77f000000000000000000000000000000000000000000000000000000000000000083612942565b805160609015158061190a5784846040516020016118f692919091825260c01b6001600160c01b031916602082015260280190565b604051602081830303815290604052611931565b848433856040516020016119219493929190612a24565b6040516020818303038152906040525b9150935093915050565b6040516001600160a01b0384811660248301528381166044830152606482018390526119a29186918216906323b872dd906084015b604051602081830303815290604052915060e01b6020820180516001600160e01b038381831617835250505050611ae3565b50505050565b60008134146119cc576040516304fb820960e51b81523460048201526024016107c5565b5090565b60007f00000000000000000000000000000000000000000000000000000000000000006001600160a01b031663e4fe1d946040518163ffffffff1660e01b8152600401602060405180830381865afa158015611a30573d6000803e3d6000fd5b505050506040513d601f19601f82011682018060405250810190611a549190612a67565b90506001600160a01b038116611a7d576040516329b99a9560e11b815260040160405180910390fd5b6108506001600160a01b038216337f00000000000000000000000000000000000000000000000000000000000000008561193b565b6040516001600160a01b038381166024830152604482018390526115cb91859182169063a9059cbb90606401611970565b6000611af86001600160a01b03841683611b46565b90508051600014158015611b1d575080806020019051810190611b1b91906125a5565b155b156115cb57604051635274afe760e01b81526001600160a01b03841660048201526024016107c5565b606061177b8383600084600080856001600160a01b03168486604051611b6c9190612a84565b60006040518083038185875af1925050503d8060008114611ba9576040519150601f19603f3d011682016040523d82523d6000602084013e611bae565b606091505b5091509150611bbe868383611bc8565b9695505050505050565b606082611bdd57611bd882611c24565b61177b565b8151158015611bf457506001600160a01b0384163b155b15611c1d57604051639996b31560e01b81526001600160a01b03851660048201526024016107c5565b508061177b565b805115611c345780518082602001fd5b604051630a12f52160e11b815260040160405180910390fd5b60405180606001604052806000801916815260200160006001600160401b03168152602001611c8f604051806040016040528060008152602001600081525090565b905290565b600060e08284031215611ca657600080fd5b50919050565b600060208284031215611cbe57600080fd5b81356001600160401b03811115611cd457600080fd5b6109e084828501611c94565b60005b83811015611cfb578181015183820152602001611ce3565b50506000910152565b60008151808452611d1c816020860160208601611ce0565b601f01601f19169290920160200192915050565b8351815260208085015190820152600060a08201604060a0604085015281865180845260c08601915060c08160051b8701019350602080890160005b83811015611dab5788870360bf19018552815180518852830151838801879052611d9887890182611d04565b9750509382019390820190600101611d6c565b505087516060880152505050602085015160808501525090506109e0565b600060608284031215611ca657600080fd5b60008083601f840112611ded57600080fd5b5081356001600160401b03811115611e0457600080fd5b602083019150836020828501011115611e1c57600080fd5b9250929050565b6001600160a01b0381168114610f3857600080fd5b600080600080600080600060e0888a031215611e5357600080fd5b611e5d8989611dc9565b96506060880135955060808801356001600160401b0380821115611e8057600080fd5b611e8c8b838c01611ddb565b909750955060a08a01359150611ea182611e23565b90935060c08901359080821115611eb757600080fd5b50611ec48a828b01611ddb565b989b979a50959850939692959293505050565b803563ffffffff81168114611eeb57600080fd5b919050565b60008060408385031215611f0357600080fd5b611f0c83611ed7565b946020939093013593505050565b8015158114610f3857600080fd5b60008060408385031215611f3b57600080fd5b82356001600160401b03811115611f5157600080fd5b611f5d85828601611c94565b9250506020830135611f6e81611f1a565b809150509250929050565b8151815260208083015190820152604081016108b7565b803561ffff81168114611eeb57600080fd5b60008060408385031215611fb557600080fd5b611fbe83611ed7565b9150611fcc60208401611f90565b90509250929050565b60208152600061177b6020830184611d04565b600060208284031215611ffa57600080fd5b813561177b81611e23565b60008060008060a0858703121561201b57600080fd5b6120258686611dc9565b935060608501356001600160401b0381111561204057600080fd5b61204c87828801611ddb565b909450925050608085013561206081611e23565b939692955090935050565b60008083601f84011261207d57600080fd5b5081356001600160401b0381111561209457600080fd5b6020830191508360208260051b8501011115611e1c57600080fd5b600080602083850312156120c257600080fd5b82356001600160401b038111156120d857600080fd5b6120e48582860161206b565b90969095509350505050565b60006020828403121561210257600080fd5b61177b82611ed7565b6000806000806060858703121561212157600080fd5b61212a85611ed7565b935061213860208601611f90565b925060408501356001600160401b0381111561215357600080fd5b61215f87828801611ddb565b95989497509550505050565b6000806000838503608081121561218157600080fd5b84356001600160401b0381111561219757600080fd5b6121a387828801611c94565b9450506040601f19820112156121b857600080fd5b5060208401915060608401356121cd81611e23565b809150509250925092565b600060c082019050835182526001600160401b0360208501511660208301526040840151612213604084018280518252602090810151910152565b5082516080830152602083015160a083015261177b565b60006060828403121561223c57600080fd5b61177b8383611dc9565b634e487b7160e01b600052604160045260246000fd5b600181811c9082168061227057607f821691505b602082108103611ca657634e487b7160e01b600052602260045260246000fd5b600080858511156122a057600080fd5b838611156122ad57600080fd5b5050820193919092039150565b600084516122cc818460208901611ce0565b8201838582376000930192835250909392505050565b81835281816020850137506000828201602090810191909152601f909101601f19169091010190565b6020815260006109e06020830184866122e2565b634e487b7160e01b600052603260045260246000fd5b6000823561013e1983360301811261234c57600080fd5b9190910192915050565b6000808335601e1984360301811261236d57600080fd5b8301803591506001600160401b0382111561238757600080fd5b602001915036819003821315611e1c57600080fd5b6001600160401b0381168114610f3857600080fd5b63ffffffff6123bf89611ed7565b16815260208801356020820152600060408901356123dc8161239c565b6001600160401b03811660408401525087606083015260e0608083015261240760e0830187896122e2565b6001600160a01b03861660a084015282810360c08401526124298185876122e2565b9a9950505050505050505050565b604080519081016001600160401b038111828210171561245957612459612246565b60405290565b60006020828403121561247157600080fd5b81516001600160401b038082111561248857600080fd5b818401915084601f83011261249c57600080fd5b8151818111156124ae576124ae612246565b604051601f8201601f19908116603f011681019083821181831017156124d6576124d6612246565b816040528281528760208487010111156124ef57600080fd5b611721836020830160208801611ce0565b60006040828403121561251257600080fd5b61251a612437565b82358152602083013560208201528091505092915050565b60006020828403121561254457600080fd5b813561177b8161239c565b60018060a01b038516815283602082015261ffff83166040820152608060608201526000611bbe6080830184611d04565b6040815260006125936040830185611d04565b82810360208401526113d78185611d04565b6000602082840312156125b757600080fd5b815161177b81611f1a565b6040815263ffffffff8351166040820152602083015160608201526000604084015160a060808401526125f860e0840182611d04565b90506060850151603f198483030160a08501526126158282611d04565b60809690960151151560c08501525050506001600160a01b039190911660209091015290565b60006040828403121561264d57600080fd5b612655612437565b9050815181526020820151602082015292915050565b60006040828403121561267d57600080fd5b61177b838361263b565b60008235605e1983360301811261234c57600080fd5b6000602082840312156126af57600080fd5b61177b82611f90565b601f8211156115cb576000816000526020600020601f850160051c810160208610156126e15750805b601f850160051c820191505b81811015612700578281556001016126ed565b505050505050565b6001600160401b0383111561271f5761271f612246565b6127338361272d835461225c565b836126b8565b6000601f841160018114612767576000851561274f5750838201355b600019600387901b1c1916600186901b178355610e71565b600083815260209020601f19861690835b828110156127985786850135825560209485019460019092019101612778565b50868210156127b55760001960f88860031b161c19848701351681555b505060018560011b0183555050505050565b60208082528181018390526000906040808401600586901b8501820187855b8881101561289d57878303603f190184528135368b9003605e1901811261280c57600080fd5b8a01606063ffffffff61281e83611ed7565b16855261ffff61282f898401611f90565b168886015286820135601e1983360301811261284a57600080fd5b9091018781019190356001600160401b0381111561286757600080fd5b80360383131561287657600080fd5b818887015261288882870182856122e2565b968901969550505091860191506001016127e6565b509098975050505050505050565b6001600160f01b031981358181169160028510156128d35780818660020360031b1b83161692505b505092915050565b6000608082840312156128ed57600080fd5b604051606081018181106001600160401b038211171561290f5761290f612246565b6040528251815260208301516129248161239c565b6020820152612936846040850161263b565b60408201529392505050565b60008261295f57634e487b7160e01b600052601260045260246000fd5b500490565b80820281158282048414176108b757634e487b7160e01b600052601160045260246000fd5b803560208310156108b757600019602084900360031b1b1692915050565b6001600160c01b031981358181169160088510156128d35760089490940360031b84901b1690921692915050565b6001600160401b0360c01b8560c01b16815263ffffffff60e01b8460e01b16600882015282600c82015260008251612a1481602c850160208701611ce0565b91909101602c0195945050505050565b8481526001600160401b0360c01b8460c01b16602082015282602882015260008251612a57816048850160208701611ce0565b9190910160480195945050505050565b600060208284031215612a7957600080fd5b815161177b81611e23565b6000825161234c818460208701611ce056fea2646970667358221220790e3ee05092ccd01d2c0f3a1e1424691f70e33ab45cdbfc4fb60eea46b52a0064736f6c63430008160033",
  "linkReferences": {},
  "deployedLinkReferences": {}
}